:020000040800F2
:10000000B80E00208128000889280008A5050008EE
:100010008D2800088F2800089128000800000000A3
:10002000000000000000000000000000932800080D
:100030009528000800000000EB04000811280008C3
:100040009B2800089B2800089B2800089B28000884
:100050009B2800089B280008192B00082D2B00085E
:10006000412B0008552B0008692B00089B2800082D
:100070009B2800089B2800089B2800089B28000854
:100080009B2800089B2800089B2800089B28000844
:100090009B2800089B2800089B2800087D2B00084F
:1000A0009B2800089B2800089B2800089B28000824
:1000B0009B2800089B2800089B2800089B28000814
:1000C0009B2800089B2800089B2800089B28000804
:1000D0009B2800089B280008312C00089B2800085A
:1000E000A92B00089B2800089B2800089B280008D3
:1000F0009B2800089B2800089B2800089B280008D4
:100100009B2800089B2800089B2800089B280008C3
:100110009B2800089B2800089B2800089B280008B3
:100120009B2800089B2800089B2800089B280008A3
:1001300000F002F800F05CF80AA090E8000C82449D
:100140008344AAF10107DA4501D100F051F8AFF27A
:10015000090EBAE80F0013F0010F18BFFB1A43F0A5
:1001600001031847F8BD000018BE00000A444FF014
:10017000000C10F8013B13F0070408BF10F8014B06
:100180001D1108BF10F8015B641E05D010F8016B4B
:10019000641E01F8016BF9D113F0080F1EBF10F8AF
:1001A000014BAD1C0C1B09D16D1E58BF01F801CBD2
:1001B000FAD505E014F8016B01F8016B6D1EF9D555
:1001C0009142D6D37047000000230024002500266A
:1001D000103A28BF78C1FBD8520728BF30C148BFAA
:1001E0000B6070471FB50AF0A7F81FBD10B510BD12
:1001F0000AF070F81146FFF7F5FF04F036FA0AF03E
:100200008EF803B4FFF7F2FF03BC00F0C5F800005E
:1002100070B5012440F2036009F0DCF81B4D102397
:1002200003221946284609F067FD1021284609F0E7
:10023000B8FD0021142001F099FC0021132001F0E9
:1002400095FC4FF4FA751BE00121142001F0A2FC8B
:10025000284608F026FC0021142001F09BFC2846CB
:1002600008F01FFC0121132001F094FC284608F03F
:1002700018FC0021132001F08DFC284608F011FC29
:10028000641C012CE0D1002070BD0000000C014076
:1002900010B50446544909F091FF002818D052497E
:1002A0002046891D09F08AFF98B14F4920460D313B
:1002B00009F084FF78B14DA006F048FE4A4952A2E9
:1002C0001B3159A006F042FE59A006F03FFE002067
:1002D00010BD012010BD022010BD10B543A006F0D6
:1002E00035FE414948A225314FA006F02FFE50A00F
:1002F00006F02CFE002010BD10B53CA006F026FE36
:10030000394941A2303148A006F020FE48A006F04D
:100310001DFE002010BD70B515460E464FF0FF348F
:1003200001280FD002280DD0B0B130A006F00EFE8B
:100330002D4935A23A313CA006F008FE3CA006F05B
:1003400005FE07E006F0C9FF20B12B4632462146E4
:1003500004F0EBFA002070BD204670BD10B523A05C
:1003600006F0F4FD204928A245312FA006F0EEFD4D
:100370002FA006F0EBFD002010BD10B514460B4673
:100380002DA2214606F093FF012010BD00207047EA
:10039000C1B22BA006F0DABD00F054F8FEE710B5AC
:1003A00012A006F0D3FD104917A24F311EA006F08F
:1003B000CDFD1FA006F0CAFD002010BD022801D807
:1003C000012070470020704710B508A006F0BEFD60
:1003D00005490DA2143114A006F0B8FD14A006F0D2
:1003E000B5FD002010BD000042A300081B5B3333A5
:1003F0006D5B572F61726D6C6962632E73797363E5
:10040000616C6C735D200000506C656173652065E4
:100410006E61626C652052545F5553494E475F5080
:100420004F5349585F46530025733A202573000007
:100430001B5B306D0A00000074656D25303364006D
:100440002563000070B5054607F0DBFF040011D0FE
:100450000EA006F07BFD2A46214611A006F076FD8F
:1004600014A006F073FD2046BDE870400022012173
:1004700008F01DBB70BD10B5040005D006F01BFED2
:100480000146204603F0C7F8002010BD1B5B333146
:100490006D5B452F7374646C69625D200000000021
:1004A0007468726561643A257320657869743A25C9
:1004B000642100001B5B306D0A000000EFF3108028
:1004C00072B6704780F310887047444A1368012B56
:1004D00004D04FF001031360414A1060414A11609B
:1004E00041484FF0805101607047EFF3108272B6BF
:1004F0003A48016851B34FF0000101603848016883
:1005000091B1EFF309811EF0100F08BF21ED108BA0
:1005100021E9F00F4FF000041EF0100F08BF012476
:1005200041F8044D006801602E490968096808C94E
:10053000B1E8F00F002B18BFB1EC108B81F30988E4
:100540004EF0100E002B18BF2EF0100E82F3108804
:100550004EF0040E704723490860EFF3148222F036
:10056000040282F314881E494FF0000008601B4902
:100570004FF0010008601D481D49D0F8002041EAF5
:100580000201016018484FF080510160194800686D
:10059000006880F3088861B662B6BFF34F8FBFF37F
:1005A0006F8F70471EF0040F0CBFEFF30880EFF35E
:1005B000098020E9F00F40F804ED40F804ED1EF04A
:1005C000040F0CBF80F3088880F3098800B500F0A1
:1005D00068F85DF804EB4EF0040E70470C00002044
:1005E000040000200800002004ED00E020ED00E001
:1005F0000000FFFF08ED00E070B50446121D22F078
:1006000007000022A64D443840F82250521C112AFF
:10061000FAD3416200218162C16200F134020163B8
:1006200082E81A004FF080730364016070BD9D4939
:100630000860704710B59CA006F088FC9D4C21789E
:100640009DA006F083FC2078C00702D0A0A006F091
:100650007DFC2078800702D5A0A006F077FC2078EA
:10066000400702D5A0A006F071FC2078000702D553
:10067000A1A006F06BFC2078C00602D5A1A006F070
:1006800065FC2078000607D58A480F300168BDE870
:1006900010409EA006F05ABCBDE810409FA006F096
:1006A00055BC70B57F490546283009682C1D11B12D
:1006B0008847002857D09AA0216C06F047FC9CA0E0
:1006C000616A06F043FC9EA0A16A06F03FFCA0A070
:1006D000E16A06F03BFCA2A0216B06F037FCA4A067
:1006E000616806F033FCA6A0A16806F02FFCA8A064
:1006F000E16806F02BFCAAA0216906F027FCACA05B
:10070000616906F023FCAEA0A16906F01FFCB0A051
:10071000E16906F01BFCB2A0216A06F017FCB4A048
:10072000616B06F013FCB6A0A16B06F00FFCB8A03D
:10073000E16B06F00BFC2878400708D507F061FE56
:100740000146B7A006F002FC03F004F902E0BCA0E9
:1007500006F0FCFB2878C00602D4C0A006F0F6FB29
:1007600000F013F8FEE770BD10B5C0A006F0EEFB78
:10077000BDE8104040F2B512C049C1A006F01ABD54
:100780004C49C0481D390860704710B5494CE41CFD
:100790002068800702D5BCA006F0D8FB2068400086
:1007A00010D54448007808B1FFF744FF4148401E87
:1007B000007808B100F042F83E48401C008808B1BB
:1007C00000F009F82068002804DABDE81040B4A061
:1007D00006F0BCBB10BD10B5B5A006F0B7FB354C9C
:1007E000641C2188B6A006F0B1FB2088C00702D0A7
:1007F000B9A006F0ABFB2088800702D5B9A006F0AF
:10080000A5FB2088400702D5B9A006F09FFB2088F1
:10081000000702D5B8A006F099FB2088C00502D5D4
:10082000B7A006F093FB2088800502D5B7A006F09C
:100830008DFBBDE81040A1A006F088BB10B5B6A0A6
:1008400006F084FB1B4C641E2178B8A006F07EFBEA
:100850002078C00702D0BBA006F078FB2078800784
:1008600002D5BBA006F072FB2078000702D5BBA022
:1008700006F06CFB2078C00602D5BBA006F066FB34
:100880002078000607D50B480B300168BDE8104002
:10089000B8A006F05BBBBDE8104088A006F056BBD0
:1008A000EFBEADDE00000020627573206661756CDE
:1008B000743A0A0029ED00E05343425F4346535225
:1008C0005F424653523A30782530325820000000BB
:1008D00049425553455252200000000050524543B2
:1008E0004953455252200000494D50524543495307
:1008F0004552522000000000554E53544B45525271
:100900002000000053544B45525220005343422DC7
:100910003E424641523A253038580A000A0000004B
:100920007073723A203078253038780A0000000061
:100930007230303A203078253038780A00000000D4
:100940007230313A203078253038780A00000000C3
:100950007230323A203078253038780A00000000B2
:100960007230333A203078253038780A00000000A1
:100970007230343A203078253038780A0000000090
:100980007230353A203078253038780A000000007F
:100990007230363A203078253038780A000000006E
:1009A0007230373A203078253038780A000000005D
:1009B0007230383A203078253038780A000000004C
:1009C0007230393A203078253038780A000000003B
:1009D0007231303A203078253038780A0000000033
:1009E0007231313A203078253038780A0000000022
:1009F0007231323A203078253038780A0000000011
:100A0000206C723A203078253038780A00000000D7
:100A10002070633A203078253038780A00000000D2
:100A200068617264206661756C74206F6E207468F2
:100A3000726561643A2025730D0A0D0A00000000FA
:100A400068617264206661756C74206F6E206861E5
:100A50006E646C65720D0A0D0A0000004650552048
:100A6000616374697665210D0A000000736875740E
:100A7000646F776E2E2E2E0A000000009BA30008E4
:100A8000300000000400FA056661696C6564207638
:100A90006563746F722066657463680A0000000005
:100AA0006465627567206576656E740A00000000F3
:100AB0007573616765206661756C743A0A000000A1
:100AC0005343425F434653525F554653523A307840
:100AD0002530325820000000554E444546494E53BB
:100AE00054522000494E56535441544520000000B2
:100AF000494E5650432000004E4F43502000000006
:100B0000554E414C49474E45442000004449564209
:100B1000595A45524F2000006D656D206D616E6120
:100B20006765206661756C743A0A00005343425F42
:100B3000434653525F4D4653523A3078253032582F
:100B4000200000004941434356494F4C200000001B
:100B50004441434356494F4C200000004D554E53ED
:100B6000544B4552522000004D53544B4552522095
:100B7000000000005343422D3E4D4D41523A253076
:100B800038580A0010B5040004D11B225F4960A048
:100B900006F010FBFFF792FC002102C464602460A1
:100BA000BDE81040FFF78EBC2DE9F341040005D1EC
:100BB00056493A22133156A006F0FCFA0198002853
:100BC0003BD0FFF77BFC054607F093FB50B14F4944
:100BD00055A0133106F0BAF94C493D2213315DA0FE
:100BE00006F0E8FAFFF76AFC064607F00AFC50B97F
:100BF000464959A0133106F0A9F944493D22133161
:100C000054A006F0D7FAFFF759FC074605F0BEFFDF
:100C100050B13E495EA0133106F098F93B493D22A0
:100C200013314CA006F0C6FA3846FFF74BFC3046AD
:100C3000FFF748FC2846FFF745FC002707F0E1FBDB
:100C40000546FFF73BFC80462068002601282ED091
:100C50006168201D814205D02C494622133156A0DF
:100C600006F0A8FA019848B328462E6307F0A6FDBF
:100C7000A26805F11400211D1060A268AA61A0609D
:100C800069610198002809DD05F14C0001AA0021E5
:100C9000074608F0D6F8384608F04CF84046FFF70B
:100CA00011FC07F098FA2F6BFFF708FC80462660CE
:100CB0004046FFF707FC3846BDE8FC816FF00107AE
:100CC000F6E770B5040005D110497F22263110A047
:100CD00006F070FA2068012816D0FFF7EFFB0546F2
:100CE000012001C42068A04209D0143807F048FC54
:100CF0002846FFF7E7FBBDE8704007F06CBA2846CE
:100D0000BDE87040FFF7DEBB70BD0000AEA3000879
:100D1000636F6D706C6574696F6E20213D20525455
:100D20005F4E554C4C00000046756E6374696F6EE3
:100D30005B25735D3A207363686564756C6572202A
:100D40006973206E6F7420617661696C61626C6595
:100D50000A0000003000000046756E6374696F6E13
:100D60005B25735D207368616C6C206E6F7420620C
:100D7000652075736564206265666F7265207363B4
:100D8000686564756C65722073746172740A000022
:100D900046756E6374696F6E5B25735D2073686161
:100DA0006C6C206E6F7420626520757365642069B9
:100DB0006E204953520A000072745F6C6973745F4D
:100DC0006973656D707479282628636F6D706C6522
:100DD00074696F6E2D3E73757370656E6465645FC4
:100DE0006C697374292900002DE9F0411E461746ED
:100DF0000D46040004D12F22FA49FBA006F0DAF9CF
:100E000025B93022F749FDA006F0D4F9FE48266244
:100E10002060A580E780208961896FF30E0040F48F
:100E200000402081080C0004608104F11000606122
:100E300020610830E061A061E80006F0D2F9E060CE
:100E400010B10020BDE8F0816FF00400FAE72DE951
:100E5000FF5F040005D1E34962221331E2A006F0EE
:100E6000A9F9E9492068884205D0DE496322133197
:100E7000E6A006F09FF9039800283BD0FFF71EFB81
:100E8000054607F036FA50B1D649E8A0133106F00E
:100E90005DF8D44966221331EFA006F08BF9FFF715
:100EA0000DFB064607F0ADFA50B9CE49EBA0133161
:100EB00006F04CF8CB4966221331E7A006F07AF928
:100EC000FFF7FCFA074605F061FE50B1C549F1A0F5
:100ED000133106F03BF8C34966221331DEA006F059
:100EE00069F93846FFF7EEFA3046FFF7EBFA284685
:100EF000FFF7E8FA002607F084FA0546FFF7DEFA66
:100F00000746B04605F1140A04F1100B05F14C092F
:100F100026E00398F0B12846C5F8308007F04EFC73
:100F20005146584600F0B4FA0398002807DD03AA9A
:100F30000021484607F085FF484607F0FBFE38468B
:100F4000FFF7C0FA07F047F92E6BFFF7B7FA07462D
:100F500036B102E06FF001063846FFF7B3FA43E01E
:100F600060890004D5D46289E168C2F30E02019859
:100F700041F8320062890423C2F30E02E16803EBF8
:100F8000C202029888506089D90301EBF0304FEA21
:100F900070406081A288C0F30E01914202D16FF3CC
:100FA0000E006081208920F4004121816089C0F316
:100FB0000E028A4202D140F400406081A06904F12F
:100FC0001801884208D0143807F0DAFA3846FFF7DB
:100FD00079FA07F000F907E03846FFF773FA226A5A
:100FE00012B102212046904704B03046BDE8F09F80
:100FF00010B5040006D17B494FF4ED7274317AA02C
:1010000006F0D8F880492068884206D0754940F239
:10101000DB1274317DA006F0CDF82089000401D5E3
:10102000002010BDFFF74AFA02466089C0F30E01A6
:101030002089C0F30E00814201D8A3881944081A00
:1010400004B21046FFF73EFAA0B210BD2DE9FF4FE3
:1010500083B090468946040005D16249D7222631E3
:1010600061A006F0A7F868492068884205D05D496C
:10107000D822263165A006F09DF8B9F1000F05D100
:101080005849D92226318DA006F094F8B8F1000F06
:1010900005D15449DA2226318DA006F08BF8069846
:1010A00000283BD0FFF70AFA064607F022F950B1B4
:1010B0004C495EA0263105F049FF4A49DD22263120
:1010C00065A006F077F8FFF7F9F9054607F099F9FA
:1010D00050B9444961A0263105F038FF4149DD226D
:1010E00026315DA006F066F8FFF7E8F9074605F03F
:1010F0004DFD50B13B4967A0263105F027FF394926
:10110000DD22263154A006F055F83846FFF7DAF90B
:101110002846FFF7D7F93046FFF7D4F9002607F045
:1011200070F90546FFF7CAF9074605F1140001906A
:1011300004F11800B24605F14C0B009026E0069829
:10114000F0B12846C5F830A007F038FBDDE9000112
:1011500000F09EF90698002807DD06AA00215846EF
:1011600007F06FFE584607F0E5FD3846FFF7AAF98D
:1011700007F031F82E6BFFF7A1F9074636B102E010
:101180006FF001063846FFF79DF9D1E02089000491
:10119000D5D42189E068C1F30E01042250F8311042
:1011A000C9F800102189E068C1F30E0102EBC1010A
:1011B0004158C8F800102089D10301EBF0304FEA04
:1011C00070402081A288C0F30E01914202D16FF3DA
:1011D0000E002081608920F4004060812189C1F3E4
:1011E0000E027DE0E7A30008717565756520213D5D
:1011F0002052545F4E554C4C0000000073697A65D4
:10120000203E2030000000000E0EADBE71756575E9
:10121000652D3E6D61676963203D3D204441544129
:1012200051554555455F4D414749430046756E63ED
:1012300074696F6E5B25735D3A20736368656475CE
:101240006C6572206973206E6F7420617661696CC1
:1012500061626C650A0000003000000046756E6334
:1012600074696F6E5B25735D207368616C6C206EB2
:101270006F742062652075736564206265666F72A5
:1012800065207363686564756C6572207374617240
:10129000740A000046756E6374696F6E5B25735D3A
:1012A000207368616C6C206E6F74206265207573AA
:1012B000656420696E204953520A000064617461BC
:1012C0005F70747220213D2052545F4E554C4C008B
:1012D00073697A6520213D2052545F4E554C4C0075
:1012E000904202D141F4004020812046FFF780FE69
:1012F000E188884214D8206904F11001884208D09E
:10130000143807F03DF93846FFF7DCF806F063FFC4
:1013100002E03846FFF7D6F8226A4AB1032105E019
:101320003846FFF7CFF8226A12B1012120469047D4
:1013300007B03046BDE8F08F70B515460E46040084
:1013400006D1574940F24F12AFF2641005F032FF58
:1013500054492068884206D051494FF4A872AFF230
:10136000541005F027FF2089000402D56FF0030018
:1013700070BDFFF7A3F82289E168C2F30E020423CF
:1013800051F8321031602289E168C2F30E0203EB9A
:10139000C20289582960FFF795F8002070BD2DE939
:1013A000F041040007D13E4940F26F121331AFF211
:1013B000C81005F0FFFE3B492068884207D0384935
:1013C0004FF4B8721331AFF2BC1005F0F3FEFFF723
:1013D00075F80246208961896FF30E0040F40040E1
:1013E0002081080C000460811046FFF76BF806F0BE
:1013F0005CFF4FF0FF3504F118060AE0FFF75EF8D6
:101400000746A069C561143807F0BAF83846FFF7F7
:1014100059F8A069B042F1D104F110062069B04238
:101420000BD0FFF74BF807462069C561143807F069
:10143000A7F83846FFF746F8F0E706F041FFBDE8A9
:10144000F04106F0C8BE10B5040007D114494FF4AE
:10145000DF722731AFF2702005F0ACFE1149206831
:10146000884207D00E4940F2BF122731AFF2642004
:1014700005F0A0FE2046FFF792FFFFF71FF80021BE
:101480002160FFF71FF8E06805F097FF002010BD0E
:101490004268116042684A6041600860704700001D
:1014A0001FA400080E0EADBE040004D13C22F74973
:1014B000F7A005F07FFEFFF701F825680646A54274
:1014C00009D106F09EFF07F079F93046FEF7FAFFE2
:1014D00006F081FEEFE7284600F07EFA2561288AB3
:1014E000002720F00100288230462F64FEF7EAFF33
:1014F000D5E9022128469047276106F0D6FE04F17F
:101500001405284603F04CFD801C02D006F0D8FEDE
:10151000D1E7284603F046FDF3E770B5056C0446B5
:101520002DB9DA49BA221831D9A005F043FEFEF7E9
:10153000C5FF064604F1140007F06CFB208A20F07A
:1015400002002082204600F047FA2869A04207D016
:101550002146686800F039FA208A40F001002082B4
:10156000286930B9686B90F8341001F0070102293E
:1015700004D03046BDE87040FEF7A4BF07F000F885
:101580003046FEF79FFFBDE8704006F024BEF7B579
:1015900082B00C460546FEF791FF0746204600F054
:1015A0001BFA208A20F001012182049880B16FF09B
:1015B000004290424DD2890704F114062FD53046DF
:1015C00007F00FFC04AA0021304607F03AFC33E094
:1015D0002869A0420AD02146686800F0F6F9208AFE
:1015E00040F0010020822564002401E06FF0060431
:1015F000286930B9686B90F8341001F007010229AE
:1016000005D03846FEF75EFF204605B0F0BD06F077
:10161000B7FF3846FEF756FF06F0DDFDF4E704217C
:10162000CDE9000123469F4A9FA1304607F0C4FA46
:10163000208A40F00200208225642146E86800F0FC
:10164000C4F93846FEF73EFF304607F073FB002032
:10165000DBE73846FEF736FF4FF0FF30D5E72DE9E0
:10166000F0410C460546FEF729FF0646204600F0ED
:10167000B3F9208A20F00100208280070BD504F105
:101680001400074607F0ADFB384607F0C3FA208A7E
:1016900020F0020020822869A04201D0002501E04C
:1016A0006FF00605002020643046FEF70BFF284649
:1016B000BDE8F08170B516460D46040005D17349AA
:1016C000E32236317AA005F075FD2DB96F49E42289
:1016D00036317BA005F06EFD64602460002020643C
:1016E000C4E902562082608270BD2DE9FC410746A4
:1016F00015460E46382005F074FD04001BD06460CA
:10170000246004F10800E060A06000200346024667
:10171000206171A104F1140003F0D9FA0A20CDE987
:101720000050334622466E49384606F0D1FF6063CA
:1017300020B106F05CFF2046BDE8FC81204605F0A4
:101740003CFE0020F8E770B5040006D14F494FF485
:10175000D772D5314EA005F02DFD06F0A6FD02E0B2
:101760002046FFF77CFF2168A142F9D104F108056A
:10177000A168A94203D02046FFF771FFF8E706F001
:101780009FFD002070BD10B5040006D13F4940F216
:101790001D1243313EA005F00DFD2046FFF7D3FF9B
:1017A000606B06F0B9FF04F1140003F0BFFA2046A5
:1017B00005F003FE002010BD70B50C46050006D1F3
:1017C000324940F23312583131A005F0F3FC34B9FC
:1017D0002E494FF49A72583135A005F0EBFC2146A2
:1017E0002846BDE870400022D1E670B514460D468B
:1017F000060006D125494FF4A5726C3124A005F0EE
:10180000D9FC35B9214940F24B126C3128A005F0C2
:10181000D1FC6FF00040844206D31C494FF4A672FD
:101820006C3130A005F0C6FC224629463046BDE8A2
:101830007040ACE670B50D46040006D113494FF474
:10184000AF72853112A005F0B5FC35B90F4940F2F1
:101850005F12853116A005F0ADFCFEF72FFE06469F
:10186000284600F0B9F82946204600F0AEF8206975
:1018700030B9606B90F8341001F0070102293DD0B7
:101880003046FEF71FFE002070BD00006DA400086A
:10189000717565756520213D2052545F4E554C4C45
:1018A000000000001B150008776F726B000000003D
:1018B000776F726B20213D2052545F4E554C4C0087
:1018C000776F726B5F66756E6320213D2052545FA7
:1018D0004E554C4C00000000777175657565000031
:1018E000A91400087469636B73203C2052545F5440
:1018F00049434B5F4D4158202F20320006F040FEF7
:101900003046FEF7DFFD06F066FCBCE770B50D0063
:10191000044606D135494FF4C172AFF26C0005F0B0
:1019200049FC34B9314940F28312AFF29C0005F012
:1019300041FC29462046BDE8704090E670B50D4652
:10194000040007D1294940F293121931AFF2C000C7
:1019500005F030FC3DB925494FF4CA721931AFF298
:10196000B00005F027FC2069A84206D14FF0FF31F6
:1019700004F1140003F07EFA03E029462046FFF745
:101980006EFE002080E70A460146194800682CE7F1
:101990000146174800684DE7014615480068B5E75D
:1019A00010B5134C206870B917224FF4006111A0D4
:1019B000FFF79BFE206030B90C494FF4FC725431A4
:1019C0000FA005F0F7FB002010BD0268516002680F
:1019D0000A60016048607047D0E900124A60D0E9AF
:1019E0000012116040600060704700000BA5000805
:1019F0001000002073797320776F726B7100000004
:101A00007379735F776F726B7120213D2052545F41
:101A10004E554C4C0000000070B51E4615460400A3
:101A200004D119227D497EA005F0C4FB0DB1042E1E
:101A300001D0002070BD206C298882682046904724
:101A40006880304670BD70B51E461546040005D14D
:101A5000724928220A3172A005F0ACFB0DB1042EA8
:101A600001D0002070BD206C6A8829884368204618
:101A70009847304670BD70B51446050005D16749DA
:101A80003822153166A005F095FB3CB1286C6288C0
:101A90002188036828469847002070BD4FF0FF302A
:101AA00070BD10B50C46624919230B750023CB613C
:101AB0000B624B628B62CB625E4B0B635E4B4B6384
:101AC0005E4B0C64C1E90E3201460322584802F015
:101AD000E8FD002010BD2DE9F843554C80461D4619
:101AE000206C16460F4628B94C496B22223154A06F
:101AF00005F060FB206CC4683CB133463A46414671
:101B00004B480095A047BDE8F8836FF00500FAE761
:101B100070B5474C0546206C28B9404975223431D0
:101B200047A005F047FB206C026922B12946BDE8B9
:101B300070403F4810476FF0050070BD70B53C4CD9
:101B400006460D46206C28B934497F2246313CA018
:101B500005F030FB206C43692BB12A463146BDE8C5
:101B60007040334818476FF0050070BD70B5304CB9
:101B700006460D46206C28B928498A22583130A0E3
:101B800005F018FB206C2A4631460368BDE870401A
:101B90002748184770B5264C06460D46206C28B9D4
:101BA0001E499122643126A005F004FB206C2A46D0
:101BB00031464368BDE870401D48184770B51C4C5D
:101BC0000546206C28B91549982271311CA005F0F2
:101BD000F1FA206C29468268BDE87040144810472D
:101BE00070B5134C0546206C28B90C499F227D31F5
:101BF00013A005F0DFFA2878502805D00749A02265
:101C00007D3115A005F0D6FA206C816919B12846FE
:101C1000BDE8704008476FF0050070BD7AA5000868
:101C200070696E20213D2052545F4E554C4C00008F
:101C300008020020191A0008471A0008771A00083D
:101C40005F68775F70696E2E6F707320213D205240
:101C5000545F4E554C4C00006E616D655B305D20ED
:101C60003D3D20275027000010B5F74C2068002884
:101C70000AD1F6A005F06AF9F84805F067F9F8A06E
:101C800005F064F90120206010BD70B5C46C0546F4
:101C90002CB940F27B12F449F4A005F08BFAA1882C
:101CA000E088814206D1A068002802D0A86CC0F369
:101CB0008F2070BD04D8A0EB0100A96CC1F38F2167
:101CC000A1EB000070BD2DE9F047174688460500DE
:101CD00002D0B8F1000F06D1E34940F2E9125731C2
:101CE000E7A005F067FAFEF7E9FB8146EF49A86C2B
:101CF000084202D1EC6C3CB10DE02846EE6CFFF7D7
:101D0000C4FF04466EB333E0D74940F2F3125731B3
:101D1000E7A005F04FFA2068012818D001202060C4
:101D2000286C006930B9D0494FF4FC725731E5A0F6
:101D300005F040FA286C01233A46046941462846DA
:101D4000A0474846FEF7BEFB3846BDE8F0876FF077
:101D500006044846FEF7B6FB204605F024F90020AD
:101D6000F3E7C1494FF402725731C0A005F022FADF
:101D7000A74200DA3C46F088A96C0219C1F38F2112
:101D80008A4204D231682246014440460EE00A1AD3
:101D900031680144404605F042F9F088A96C021907
:101DA000C1F38F21521A4144081A316805F037F9FE
:101DB0002146284600F075FC4846FEF783FB204686
:101DC000C3E770B504004FF0000506D1A64940F204
:101DD0004A226631C5A005F0EDF90021E1642165D4
:101DE000216C20460A681AB100F14401904705466B
:101DF000284670BD2DE9F0410D4604004FF0000764
:101E000006D1994940F25D227531B8A005F0D2F9AA
:101E1000A9056FF0070002D5E18A89057ED529055D
:101E200002D5E18A090579D5E90502D5E18AC90516
:101E300074D5690502D5E18A49056FD5680602D4D3
:101E4000207E400600D54027E8B22083E16C4FF0A9
:101E5000000821B1E90571D540F4807172E0E80510
:101E60002AD5A06CC0F38F200C3005F0BAF906001B
:101E700006D17D494FF41F7275317CA005F09AF9A7
:101E800006F10C003060A16CC1F38F22002105F037
:101E9000A3F8A6F80480A6F80680C6F80880E664D1
:101EA000208B4FF4807240F480712183206C1021CC
:101EB00043682046984746E0A80544D57B49A06C76
:101EC000084205D1042005F08CF9060008D00EE088
:101ED000C0F38F200C3005F084F906000BD011E020
:101EE000614940F28F22753171A005F063F9C6F89F
:101EF0000080E6641FE05C494FF4267275315BA0F8
:101F000005F058F906F10C003060A16CC1F38F2286
:101F1000002105F061F8A6F8048000E067E0A6F86B
:101F20000680C6F80880E664206C4FF40072032136
:101F3000436820469847208B02E0FFE7A90502D5B9
:101F400040F400712183206D00284FEA455005D0F0
:101F5000002842DA208B40F4806043E0002819DA40
:101F60000C2005F03EF9050006D13F4940F2BB22A6
:101F7000753162A005F01EF92846FEF703FE2565BF
:101F8000208B4FF4806240F480612183206C10210B
:101F900043681FE0280526D5282005F022F9050012
:101FA00006D1314940F2CA22753159A005F002F933
:101FB000002304220821281DC5F80080FEF714FF25
:101FC0002565208B4FF4006240F400612183206C72
:101FD000032143682046984705E0280503D5208B58
:101FE00040F400602083208B384320830020BDE82C
:101FF000F08170B5040006D11B4940F2EE22843115
:102000003AA005F0D7F8A07E012801D9002070BDC4
:10201000208B4FF00006C10514D5206C4FF4807260
:102020001121436820469847208B20F4807121833A
:10203000E56C15B940F2FD2293E0284605F0BDF9A4
:10204000E66494E06EE00000140000201B5B333374
:102050006D5B572F554152545D200000A4B6000817
:102060001B5B306D0A00000040A6000872785F66B6
:1020700069666F20213D2052545F4E554C4C000044
:102080002873657269616C20213D2052545F4E5562
:102090004C4C2920262620286461746120213D2093
:1020A00052545F4E554C4C290000000000FCFF03C9
:1020B00072785F646D6120213D2052545F4E554C13
:1020C0004C00000073657269616C2D3E6F70732D5A
:1020D0003E646D615F7472616E736D697420213D41
:1020E0002052545F4E554C4C000000006465762031
:1020F000213D2052545F4E554C4C000074785F6671
:1021000069666F20213D2052545F4E554C4C0000B3
:1021100074785F646D6120213D2052545F4E554CB0
:102120004C000000800522D5206C4FF40072112174
:10213000436820469847208B20F400712183FE4994
:10214000A06CE56C084208D1002D7FF476AFFB4906
:1021500040F20F32AFF2A80006E0002DF5D14FF4A7
:102160004672F649AFF2FC0005F024F865E7208BD3
:10217000410518D5206C4FF4806211214368204638
:102180009847208B20F480612183256D35B9EB4978
:1021900040F22932AFF29C0005F00CF8284605F019
:1021A0000CF9266519E0000517D5206C4FF4006284
:1021B0001121436820469847208B20F40061218339
:1021C000256D35B9DD4940F23A32AFF2BC0004F07A
:1021D000F1FF281DFFF737F9E0E7206C002204210A
:1021E000436820469847E08A20F01000E0820DE71F
:1021F0002DE9F0411C461546060007D1CF4940F2B3
:1022000051321031AFF21C1004F0D4FF4CB1318BBD
:102210003046CA0507D522462946BDE8F04100F000
:10222000BAB90020E3E6890504D522462946BDE86F
:10223000F04148E52EB9C149E122C239C0A004F0FD
:10224000B9FF2746306CC16830468847411C09D029
:1022500005F8010B317E641E490601D50A2801D01C
:10226000002CEFD1381BC2E62DE9F0411C46154683
:10227000060007D1B14940F26B321F31AFF2941022
:1022800004F098FF4CB1318B30464A0507D5224601
:102290002946BDE8F04100F0C7B90020A7E60905CE
:1022A00020D5376D4FF0FF3322462946381DFEF703
:1022B000CEFD10B104F077FEEFE7FEF7FFF83968C6
:1022C00001290BD001213960FEF7FCF8306C0223A4
:1022D0002246076929463046B84701E0FEF7F2F882
:1022E000204684E62EB99549F822B23994A004F02C
:1022F00061FF274628780A2807D1307E400604D59A
:10230000306C0D21826830469047306C29788268A5
:1023100030469047641E05F10105EBD1384666E66C
:102320002DE9F04114460E4607004FF0000507D195
:10233000824940F2E5322F31AFF2502004F03AFFEB
:102340003846012E0FD0022E09D0032E10D0016C7A
:1023500022464B68314698470546284647E6F88AA4
:1023600040F0200002E0F88A20F02000F882F4E734
:10237000002CF2D06168836CC1F38F22C3F38F23EA
:102380009A4203D0827E0AB1072030E62268C0E973
:102390001121817E0029E0D0016C0A682146904716
:1023A000DBE72DE9F0411C4615460E46070006D135
:1023B000624940F2EB42413161A004F0FBFE002192
:1023C0003975F9613962634979626349B962634970
:1023D000F962634939636349384679636249C0E900
:1023E0000E14AAB23146BDE8F04102F05AB92DE907
:1023F000FE430446C8B200274FF0010801281CD054
:10240000022869D0032877D0042814D1256D002331
:102410006A4602A9281DFEF719FE6A4601A9281D71
:10242000FEF78AFF00285CD02F60226A002A02D0C3
:10243000204602999047BDE8FE83E56C3DB93F49CF
:1024400040F217525731AFF2DC3004F0B3FE206C8B
:10245000C168204688470646401C24D0FEF72EF867
:102460008146A98828684654A888401C80B2A88064
:10247000A16CC1F38F21884200D3AF80A988E8887E
:1024800081420CD1401C80B2E880C5F80880A16C64
:10249000C1F38F21884200D3EF80FFF7E5FB484668
:1024A000FEF710F8D3E7E0690028C4D0FEF706F87D
:1024B0000246A888E988884201D3451A04E0081A30
:1024C000A16CC1F38F210D1A1046FDF7FBFF002D03
:1024D000B1D02946E26929E0206DBDE8FE43FEF750
:1024E000F0BBC5F80080206CDDE9002105690223FE
:1024F0002046A84799E7FFE70E120F49A06C084253
:1025000002D1E56CBDB138E0FDF7D8FF0546314694
:10251000204600F0F3F82046FFF7B7FB06462846B2
:10252000FDF7D0FFE269002A85D0314603B020468E
:10253000BDE8F043104719E000FCFF03C4A6000803
:1025400073657269616C20213D2052545F4E554C79
:102550004C000000C31D0008F51D0008F31F000813
:10256000F1210008692200082123000880494FF466
:10257000AF62AFF2C44004F01DFEE06928B940F23A
:102580007A527B497BA004F015FEE2693146204671
:1025900090472F604FE72DE9F04715460F4606009C
:1025A00007D1734940F21712F939AFF26C0004F009
:1025B00001FEF46CA8464FF0000A7CBB6C4940F267
:1025C0001B12F939AFF25C5004F0F4FD26E000BFB5
:1025D000FDF774FF0146E088A288904201D1A2680D
:1025E00082B1226812F80090401C80B2E080B26C88
:1025F000C2F38F22904201D3A4F806A0A06801285C
:1026000004D005E00846FDF75DFF09E0C4F808A026
:102610000846FDF757FF07F8019B6D1E002DD7D127
:10262000A8EB0500BDE8F0872DE9F04714460E46FB
:10263000050007D14E4940F24712EA39AFF20010C7
:1026400004F0B8FDD5F8508027465FEA08004FF047
:10265000FF391DD1464940F24B12EA394FA004F030
:10266000A9FD15E030780A2809D1287E400606D554
:10267000286C0D21826828469047401C0CD0286C9D
:102680003178826828469047401C05D0641E761C2D
:10269000002CE7D13846C5E749464046FEF784FAA4
:1026A000F6E770B5C46C0D4606463CB930494FF4A8
:1026B000D372BE39AFF24C6004F07CFD3046FFF7B8
:1026C000E4FAA84206D22A4940F2A712BE3937A03E
:1026D00004F070FDA06810B10DB10020A060E0888A
:1026E000284481B2E180B06CC0F38F20814204D3D2
:1026F000B1FBF0F200FB1210E08070BD70B5C46C4D
:102700000E4605463CB91A494FF4DE72A139AFF2C4
:10271000A46004F04FFDE288A08801238242304487
:102720000FD880B2A080A96CC1F38F21884217D343
:10273000B0FBF1F501FB1500A080904210D3A3601F
:1027400011E081B2A18091420AD3A86CC0F38F201E
:102750008142F4D3B1FBF0F200FB1210A080EEE74F
:10276000A068012803D1FFF77FFAA088E08070BD40
:102770001BA7000873657269616C2D3E70617265FC
:102780006E742E72785F696E64696361746520216E
:102790003D2052545F4E554C4C000000747820216F
:1027A0003D2052545F4E554C4C0000006C656E202D
:1027B0003C3D2072745F646D615F63616C635F7246
:1027C00065637665645F6C656E2873657269616CBC
:1027D00029000000FEE770B5234864214FF0FF3563
:1027E0000068B0FBF1F1491EB1F1807F0AD24FF0D1
:1027F000E02461610F21284600F025F80020A06147
:10280000072020612846BDE87040002100F01BB879
:1028100010B504F09BF901F08FFEBDE8104004F004
:10282000A5B9124910B54FF000600860FFF7D3FF5B
:1028300001F0D2FE0EA004F053FDBDE810400E4999
:102840000E4804F07EBD0907090E002806DA00F0E4
:102850000F0000F1E02080F8141D704700F1E02027
:1028600080F80014704700000402002008ED00E02A
:10287000756172743100000000800020B80E0020E5
:102880000948804709480047FEE7FEE7FEE7FEE704
:10289000FEE7FEE7FEE7FEE7FEE7FEE70448054940
:1028A000054A064B70470000A3910008310100085B
:1028B000B8060020B80E0020B80A0020B80A002090
:1028C000702806D2D54901EB0010B0F90010491C60
:1028D00000D10020704770B51546C8B2FFF7F0FF71
:1028E000040018D0608806F075FD1021052D0BD26C
:1028F000DFE805F00A0507090300142104E00421BC
:1029000002E0482100E02821D4E90103BDE870403D
:10291000032207F0F1B970BD10B5C8B2FFF7D0FFC0
:10292000002806D081684068BDE81040D2B207F0A8
:102930003ABA10BD10B50022C8B2FFF7C1FF28B1E6
:1029400081684068BDE8104007F034BA104610BDF9
:102950002DE9F0471E4615460C46C8B2DDF820802A
:10296000FFF7AEFF6FF0090930B1806800F046F95B
:10297000070001D4102F02D34846BDE8F087FDF7C9
:102980009DFD0346A64807EB470130F92120A242EE
:1029900012D100EB8107D7F804C0B4450CD1B7F8C9
:1029A00002C0AC4508D1D7F808C0C44504D11846C8
:1029B000FDF788FD0020E0E7521C05D01846FDF722
:1029C00081FD6FF00200D8E720F8214000EB810084
:1029D00046604580C0F80880E9E770B54FF0FF35E4
:1029E000C8B2FFF76DFF6FF0090630B1806800F0E4
:1029F00005F9040001D4102C01D3304670BDFDF759
:102A00005DFD0346864804EB440130F92120521C49
:102A100007D020F8215000EB810000224260428064
:102A200082601846FDF74EFD002070BD2DE9F04193
:102A3000C8B2FFF745FF04006FF0090852D0794E85
:102A4000012A01D0EAB34DE0A06800F0D7F80500F4
:102A500048D4102D46D2FDF731FD0746704905EBED
:102A6000450031F92020521C09D001EB800006EB13
:102A70008506408838B1012807D0022807D038469B
:102A8000FDF720FD2EE0002502E0012500E00225F3
:102A90004FF4C06006F09EFCB0780022052107F0DC
:102AA00022FA617B207B07F0BEF92A460021A0684C
:102AB00007F070F8A06807F0CFF83846FDF702FD80
:102AC0000DE0FFE7806800F099F800280ADB102885
:102AD00008D216EB800005D0807807F04CFA002071
:102AE000BDE8F0814046FBE770B504460125A540EE
:102AF000284607F0A3F800280DD0494804EB44010C
:102B000000EB8100416809B1806888472846BDE82C
:102B1000704007F0A1B870BD10B504F017F80020A0
:102B2000FFF7E2FFBDE8104004F020B810B504F054
:102B30000DF80120FFF7D8FFBDE8104004F016B8EB
:102B400010B504F003F80220FFF7CEFFBDE81040F7
:102B500004F00CB810B503F0F9FF0320FFF7C4FF31
:102B6000BDE8104004F002B810B503F0EFFF0420F8
:102B7000FFF7BAFFBDE8104003F0F8BF10B503F04F
:102B8000E5FF0520FFF7B0FF0620FFF7ADFF0720A8
:102B9000FFF7AAFF0820FFF7A7FF0920FFF7A4FF10
:102BA000BDE8104003F0E2BF10B503F0CFFF0A20EC
:102BB000FFF79AFF0B20FFF797FF0C20FFF794FF1A
:102BC0000D20FFF791FF0E20FFF78EFF0F20FFF77C
:102BD0008BFFBDE8104003F0C9BF10B54FF4C060D3
:102BE00006F0F8FB0121104807F0F4F80D49002227
:102BF000BDE8104040310DA0FEF753BF0146002054
:102C00005FF0010202FA00F38B4205D0401CC0B213
:102C10002028F7D34FF0FF30704700002CA70008A2
:102C2000180000202CAE00080001300070696E0012
:102C300070B503F08BFF924DEC6B2CB940F2D912BA
:102C4000904991A004F0B6FA9349206806F070FF0D
:102C500060B10521206806F042FF38B10121284605
:102C6000FFF7C5FB0521206806F044FFBDE8704072
:102C700003F07CBF10B50446008906F0ABFB608909
:102C800006F0A8FBE08806F0A5FB238A03221821A2
:102C9000E06807F031F8238B03220421606907F014
:102CA0002BF894F904000021002806DA00F00F0048
:102CB00000F1E02080F8141D03E000F1E02080F82E
:102CC000001494F90400BDE8104000F0CEB870B5CF
:102CD0000D46040006D16B4940F2591244396FA0E9
:102CE00004F068FA35B967494FF4AD72443970A001
:102CF00004F060FAE46B2046FFF7BCFF2968206807
:102D000006F08AFD287900F00F000928206801D01C
:102D1000002101E04FF4805106F0ADFD2879C0F3A9
:102D200001100128206801D0002101E04FF400517A
:102D300006F0A9FD2879C0F38110012804D00228EB
:102D4000206805D0002105E04FF4C061206801E053
:102D50004FF4806106F087FD0421206806F0ABFD8A
:102D60000821206806F0A1FD206806F094FD0020EF
:102D700070BD70B50E46040006D142494FF4CA72C8
:102D8000303946A004F016FAE46B40F20535102EF7
:102D900012D0112E18D194F90400012100F01F0265
:102DA00091404009800000F1E020C0F880112946E0
:102DB000206806F0B3FE07E094F9040000F055F82F
:102DC0002946206806F0A0FE002070BD70B50D46B3
:102DD000040006D12B494FF4DA721E392FA004F0FB
:102DE000E9F9E46B2946206806F0AFFD0721206869
:102DF00006F075FE0028F9D0002070BD70B5040003
:102E000006D1204940F2C7120F3924A004F0D2F9AC
:102E1000E46B4FF0FF350521206806F060FE18B125
:102E2000206806F096FD0546284670BD154A1548EF
:102E300010B5583A8438A2F12403D0E90010DC69B7
:102E40002264DA69C2E91110D3E9070140F20312E2
:102E5000FFF7A7FA040006D00A494FF401721531B2
:102E600017A004F0A7F9204610BD00F01F020121B1
:102E700091404009800000F1E020C0F80011704747
:102E80004C0200200CAF00087561727420213D20B7
:102E900052545F4E554C4C00050305007365726932
:102EA000616C20213D2052545F4E554C4C00000077
:102EB00063666720213D2052545F4E554C4C000004
:102EC000726573756C74203D3D2052545F454F4BC5
:102ED0000000000070B5FF4C0546A06818B104F072
:102EE0006CFA0020A06055B1284607F0C6F8401CD7
:102EF00004F077F9A06010B1294607F09AF8002095
:102F000070BDF44810B5C16891F82110890703D449
:102F1000F149002008700EE0816821B18022EE485E
:102F200007F021F907E0EDA1EB4807F082F8EDA1E9
:102F3000E94807F00CF9E84810BD10B5E54CE06829
:102F400020B97F22E849E9A004F034F9E06890F85C
:102F50002100C0F3400010BD70B5DE4C0546E068AE
:102F600028B9E1498E221631E0A004F023F9E06887
:102F700010F8211F65F34101017070BDF8B5D54D02
:102F800000208DF80000E86828B9D749A2222C312A
:102F9000D6A004F00FF9E868D0F80C424FF0FF30EB
:102FA000002C14D0064601236A463146204601F023
:102FB0008BFC01280CD03146E86801F05BFFE86823
:102FC000D0F80C02A042EED00400ECD13046F8BD9F
:102FD0009DF80000F8BD10B5BE4CE06828B9C249A4
:102FE000C1223A31C1A004F0E5F8E06801F0DAFF4F
:102FF000002010BD70B5B74C0646E06828B9BA4944
:10300000D4224731B9A004F0D5F8304601F046FB90
:1030100005002CD0E068D0F80C02A8422DD040F278
:103020004311284601F0CDFB002826D1E068D0F8F6
:103030000C0238B101F018FCE0680021D0F80C0255
:1030400001F0C7FCE0685122002100F5DB7003F0BD
:10305000C3FFE0680021A0F80812A0F80A12C0F827
:103060000C522846BDE87040A54901F0B2BC31467B
:10307000BDE87040A3A003F069BF70BD10B5954CCA
:10308000E06828B99849FB22583198A004F092F8DA
:10309000E068D0F80C0210BD70B58E4C0546E068B3
:1030A00030B9914940F20B12693190A004F082F8D6
:1030B000E06810F8211F65F30001017070BD10B5C4
:1030C000844CE06830B988494FF48C72783187A01D
:1030D00004F070F8E06890F8210000F0010010BDE5
:1030E00070B50446B0F80802F0B3A08C04F5DB76A6
:1030F000052826D35022314604F5B37006F06DFF43
:1031000090B3002505EB850004EB001000F176017B
:103110005022263003F083FF6D1C042DF2DB05EBFB
:10312000850004EB0010263005465022002103F0F4
:1031300053FFB4F808222846314603F070FF0520FB
:1031400024E048B100EB800004EB0010502231462F
:103150002A3806F042FF38B1A08C608400EB800072
:1031600004EB0010502200E011E00021263003F0B3
:1031700033FFA08CB4F8082200EB800004EB0010B1
:103180003146263003F04BFFA08C401CA084A08C5D
:10319000608470BD4F4DE86810F8211F41F00101B7
:1031A0000170D0F8EB0120B904F097F808B1FFF7EF
:1031B00021FFFFF7A6FE03F0C9FE0026FFF7DEFEA3
:1031C0000400FBD41B2C07D0E86890F820100129DC
:1031D00007D002290ED017E0E968012081F820000D
:1031E000ECE75B2C02D080F820600DE0022180F833
:1031F0002010E3E780F82060412C3FD0422C45D0DE
:10320000442C61D0432C60D0002CD7D0FF2CD5D0DB
:10321000092C5BD07F2C5AD0082C58D00D2C57D0BD
:103220000A2CFCD0B0F80812502901D3A0F808628B
:10323000B0F80A32B0F808128B424AD2CA1A00F526
:10324000DB7100F2B7101944184403F00EFFE86870
:10325000B0F80A1200F5DB700C54E86890F8211001
:10326000C90707D0B0F80A1200F5DB7001442DA0A1
:1032700003F06CFEE868B0F80A4204E1418C19B131
:10328000491E89B241840EE0468497E7818C428CC6
:103290000B46491E8A4202DA521C428402E0002B8D
:1032A0008CD04184418C502201EB810100EB011153
:1032B00000F5DB70263103F0B2FEE86800F5DB7044
:1032C00006F0DBFE01462FE036E041E053E078E017
:1032D000B7E0DEE0D8000020A00200206D73682077
:1032E000000000003E00000032AF00087368656C0B
:1032F0006C20213D2052545F4E554C4C0000000084
:10330000D72F000866696E73683A2063616E206E7D
:103310006F742066696E64206465766963653A201F
:1033200025730A0025730000E868A0F80812A0F8C9
:103330000A1200F000F941E7B0F80A020028A4D010
:1033400084A003F003FEE868B0F80A12491E0FE0FB
:10335000B0F80A12B0F80822914296D200F5DB705C
:10336000095C7DA003F0F2FDE868B0F80A12491C80
:10337000A0F80A1222E7002403E076A003F0E6FD9D
:10338000641CE868B0F80A02A042F6DCEC6873A09E
:1033900004F5DB7403F0DAFD204600F061F9FFF775
:1033A000B0FD014622466EA003F0D0FDE86800F5AE
:1033B000DB7006F062FEE968A1F80802A1F80A02D3
:1033C000FCE6B0F80A22002AB5D0B0F80812521E66
:1033D000491E89B293B2A0F80812A0F80A329942A5
:1033E00025D9CA1A00F2B71100F5DB701944184448
:1033F00003F03BFEE868B0F8081200F5DB700E54ED
:10340000E868B0F80A1200F5DB70014456A003F03A
:103410009DFDE868B0F80A4203E04EA003F096FD77
:10342000641CE868B0F80802A04284DBF5E750A00D
:1034300003F08CFDE868B0F8081200F5DB700E545C
:10344000BCE6FFF74DFEE86890F82100C00702D007
:1034500042A003F07BFDE868B0F8081200F5DB70CD
:1034600000F0D9F8FFF74DFD03F070FDE868512238
:10347000002100F5DB7003F0AFFDE86823E035A024
:1034800003F064FD641CE868B0F80802A042F6DCB2
:103490000BE000F5DB700C54E86890F82100C007E1
:1034A00003D021462CA003F051FDE868B0F80812C3
:1034B000491C89B2A0F80812B0F80A22521CA0F8E0
:1034C0000A225029BCD3A0F80862A0F80A6275E667
:1034D000284AC2E9000170477CB527492748FFF711
:1034E000F7FF4FF40471012003F05AFF214CE06014
:1034F000D8B10A2114204FF480530022CDE90001F5
:10350000AFF26F311EA005F0E3F8054600231A461E
:103510001DA1E06801F0DBFB0120FFF71DFD15B1E7
:10352000284605F064F800207CBD19A003F00EFDCC
:103530004FF0FF307CBD10B504461BA003F006FD24
:10354000FFF7DFFC014604F5DB7205A003F0FEFC8B
:10355000002010BD08000000256300000A000000E4
:103560002573257300000000082573202008000043
:1035700008200800D80000205CBF0008B4BE000886
:10358000747368656C6C00007368727800000000EA
:103590006E6F206D656D6F727920666F7220736833
:1035A000656C6C0A000000001B5B324B0D000000D4
:1035B00070B59DA003F0CAFCA248A34D046805E0C5
:1035C000D4E90012A1A003F0C1FC0C3428688442A5
:1035D000F6D3A1A003F0BAFC002070BD10B500F036
:1035E000B9F9002010BD0EB50020009001900290A6
:1035F00002AA01A9684603F0F2FE98A0009903F020
:10360000A5FC9AA0019903F0A1FC9CA0029903F0EB
:103610009DFC00200EBD38B5044601E0491E641C27
:1036200059B120782028F9D00928F7D06A462046D9
:1036300000F059F818B1204604E0002038BD009889
:1036400038BD401C0178202901D00029F9D1002182
:10365000017021468DA003F079FC4FF0FF3038BD9A
:103660002DE9F0478146002500782C4618B17548B1
:10367000754F066829E0BDE8F0470021084697E746
:103680004846D6F8008006F0F8FC02464146484617
:1036900006F012FDC0B925B94446404606F0EDFCDF
:1036A00005464146204601E0401C491C02781AB1FB
:1036B0000B780BB19A42F7D0001BA84200DA0546FE
:1036C000414664A003F042FC0C3638688642D7D3EA
:1036D000002C06D02A4621464846BDE8F04703F0B4
:1036E00023BDBDE8F0872DE9F0478AB016468A462B
:1036F00005004FF0000405D140F20B1269496AA0A1
:1037000003F058FD3EB94FF48672664967A003F096
:1037100051FD00E0641C285D202803D0092801D059
:103720005445F7D34FF0FF3934B34648A046464FCF
:1037300004680AE042462946206806F0BDFC18B934
:10374000216811F8080020B10C3438688442F1D3A4
:1037500012E0A46884B128220021684603F03CFCF2
:103760006A465146284600F009F828B16946A04744
:10377000306000200AB0B4E74846FBE770B500238C
:1037800015461C461A464BE000F8012B5B1C0678D8
:10379000202E01D0092E01D18B42F5D30A2C11D352
:1037A00044A003F0D3FB002606E000BF55F8261026
:1037B00048A003F0CBFB761CA642F7D344A003F04D
:1037C000C5FB2FE08B422DD2F6B2222E03D045F856
:1037D0002400641C1BE0401C45F824005B1C641C96
:1037E00008E05C2E04D14678222E01D1401C5B1CDF
:1037F000401C5B1C0678222E01D08B42F1D38B42F9
:1038000010D200F8012B5B1C0AE0401C5B1C067800
:10381000202E03D0092E01D08B42F6D38B4201D249
:103820008B42B4D3204670BD52542D5468726561EA
:1038300064207368656C6C20636F6D6D616E64737A
:103840003A0A0000D8000020DC000020252D313687
:1038500073202D2025730A000A000000746F746124
:103860006C2020203A2025640A00000075736564EE
:10387000202020203A2025640A0000006D6178692C
:103880006D756D203A2025640A00000025733A20EA
:10389000636F6D6D616E64206E6F7420666F756E00
:1038A000642E0A00B9AF0008636D6400726574701D
:1038B00000000000546F6F206D616E7920617267A7
:1038C000732021205765206F6E6C79205573653AFF
:1038D0000A0000002573200010B5FEA003F036FB9F
:1038E000002010BD10B503F0CDFC002010BD2DE967
:1038F000F0410D4600212961E96891B1297A81B131
:103900002E6888B10446FCF7D9FD0146A4F10C00ED
:103910002A7A007A20F08000904209D00846FCF70D
:10392000D1FD0020BDE8F0813446FCF7C7FD01461B
:10393000686800272468B44201D1002404E010C064
:10394000EA687F1CBA42F5D10846FCF7BBFD204669
:103950002F61E7E72DE9F041B6B00026DFA4082388
:103960002EAA012128A800F073FC082080460146F9
:103970002246DC4803F0EAFA404600F060FCDAA098
:1039800003F0E4FA28A93046FFF7B1FF0646002508
:1039900054E02EA850F825400C3CFCF78FFD07465C
:1039A000207A9DF8A81020F08000884203D0384685
:1039B000FCF788FD41E08022214604A803F02FFB9C
:1039C0003846FCF77FFD94F8350000902346082226
:1039D0004146D5A003F0BAFA94F8340000F007008D
:1039E000012807D0022807D040B1042808D00328B6
:1039F00008D00AE0CFA006E0D1A004E0D3A002E006
:103A0000D5A000E0D7A003F0A1FAA06A014600E02B
:103A1000401C0278232AFBD0E26A401A101A642361
:103A20005843B0FBF2F3276BA06CCDE90007E069C7
:103A3000081A8118CEA003F089FA6D1C2C98A842B0
:103A4000A7DC002E9ED1002036B06BE72DE9F041B7
:103A500094B00026D0A408230BAA022105A800F0E8
:103A6000F7FB0820804601462246CEA003F06EFAFE
:103A7000404600F0E4FBD2A003F068FA05A9304606
:103A8000FFF735FF0646002535E00BA850F8254026
:103A90000C3CFCF713FD217A9DF81C2021F08001DD
:103AA000914202D0FCF70EFD24E0FCF70BFD6069AB
:103AB00004F11407B842384611D000F0B7FBA18BCF
:103AC000CDE90010234608224146C3A003F03EFA88
:103AD000384600F0CFFBB9A003F038FA0AE000F056
:103AE000A5FBA18BCDE90010234608224146BEA0CC
:103AF00003F02CFA6D1C0998A842C6DC002EBDD13B
:103B0000002014B00EE72DE9F04194B00026BAA4CD
:103B100008230BAA042105A800F09AFB0820804680
:103B200001462246B6A003F011FA404600F087FB9A
:103B3000BCA003F00BFA05A93046FFF7D8FE0646F5
:103B4000002533E00BA850F825400C3CFCF7B6FCF0
:103B5000217A9DF81C2021F08001914202D0FCF7CF
:103B6000B1FC22E0FCF7AEFC04F1140061690746E9
:103B7000814212D0384600F059FBE169CDE90010CE
:103B8000234608224146AFA003F0E0F9384600F092
:103B900071FB8AA003F0DAF907E0E06900902346A0
:103BA00008224146ADA003F0D1F96D1C0998A84246
:103BB000C8DC002EBFD10020A3E7F0B595B00026E9
:103BC000ABA408230DAA032107A800F041FB082796
:103BD00022463946A8A003F0B9F9384600F02FFB79
:103BE000AEA003F0B3F907A93046FFF780FE064602
:103BF000002523E00DA850F825400C3CFCF75EFCA6
:103C0000217A9DF8242021F08001914202D0FCF716
:103C100059FC12E0FCF756FC04F1140000F006FB1E
:103C2000E17F226A0823CDE90032CDE90210234664
:103C300008223946A1A003F089F96D1C0B98A8420F
:103C4000D8DC002ECFD115B00020F0BD2DE9F04119
:103C500096B000269FA408230CAA052106A800F010
:103C6000F7FA08208046014622469CA003F06EF930
:103C7000404600F0E4FAA2A003F068F906A9304635
:103C8000FFF735FE0646002563E10CA850F82540F5
:103C90000C3CFCF713FC0146207A9DF8202020F014
:103CA00080009042084602D0FCF70CFC50E1FCF783
:103CB00009FC606904F11407B842384608D000F0E6
:103CC000B5FA228C618C0091CDE90120234625E1D3
:103CD00031E100001B5B324A1B5B4800746872656F
:103CE0006164000010B70008202D2D2D20202D2DFF
:103CF0002D2D2D2D2D202D2D2D2D2D2D2D2D2D2D01
:103D0000202D2D2D2D2D2D2D2D2D2D20202D2D2D0A
:103D10002D2D2D20202D2D2D2D2D2D2D2D2D2D20FA
:103D20002D2D2D0A00000000252D2A2E2A73202576
:103D30003364200020726561647920200000000057
:103D40002073757370656E640000000020696E69F1
:103D5000742020200000000020636C6F7365202019
:103D6000000000002072756E6E696E670000000032
:103D70002030782530387820307825303878202069
:103D80002020253032642525202020307825303829
:103D90007820253033640A0073656D6170686F7236
:103DA00065000000252D2A2E7320762020207375B3
:103DB0007370656E64207468726561640A00000047
:103DC000202D2D2D202D2D2D2D2D2D2D2D2D2D2D3D
:103DD0002D2D2D0A00000000252D2A2E2A732025C6
:103DE0003033642025643A00252D2A2E2A7320259D
:103DF0003033642025640A006576656E7400000027
:103E0000252D2A2E73202020202020736574202049
:103E1000202073757370656E6420746872656164C8
:103E20000A00000020202D2D2D2D2D2D2D2D2D2D86
:103E3000202D2D2D2D2D2D2D2D2D2D2D2D2D2D0AE2
:103E400000000000252D2A2E2A73202030782530EE
:103E5000387820253033643A00000000252D2A2EC2
:103E60002A73202030782530387820300A0000006E
:103E70006D75746578000000252D2A2E7320202092
:103E80006F776E65722020686F6C64207375737035
:103E9000656E64207468726561640A00202D2D2DA2
:103EA0002D2D2D2D2D202D2D2D2D202D2D2D2D2D5C
:103EB0002D2D2D2D2D2D2D2D2D0A0000252D2A2EB9
:103EC0002A7320252D382E2A73202530346420258E
:103ED000640A00006D61696C626F7800252D2A2EDE
:103EE0007320656E7472792073697A6520737573B7
:103EF00070656E64207468726561640A0000000079
:103F0000202D2D2D2D20202D2D2D2D202D2D2D2D15
:103F10002D2D2D2D2D2D2D2D2D2D0A000822414624
:103F2000DEA003F013F8384600F0A4F9AFF27410E5
:103F300003F00CF80CE000F079F9218C628CCDE9EB
:103F400000210290234608224146DAA002F0FEFF3B
:103F50006D1C0A98A8423FF798AE002E7FF48EAEF3
:103F6000002016B0DEE42DE9F04194B00026D7A47D
:103F700008230BAA062105A800F06AF9082080464C
:103F800001462246D4A002F0E1FF404600F057F976
:103F9000D8A002F0DBFF05A93046FFF7A8FC0646D3
:103FA000002535E00BA850F825400C3CFCF786FABC
:103FB000217A9DF81C2021F08001914202D0FCF76B
:103FC00081FA24E0FCF77EFA606904F11407B84234
:103FD000384611D000F02AF9A18CCDE90010234613
:103FE00008224146C9A002F0B1FF384600F042F96C
:103FF000B5A002F0ABFF0AE000F018F9A18CCDE902
:104000000010234608224146C5A002F09FFF6D1C08
:104010000998A842C6DC002EBDD1002071E5F0B59C
:1040200097B008230026C3A40EAA194608A800F0DA
:104030000FF9082722463946C0A002F087FF38460C
:1040400000F0FDF8C7A002F081FF08A93046FFF795
:104050004EFC064600253EE00EA850F825400C3CDC
:10406000FCF72CFA217A9DF8282021F0800191425A
:1040700002D0FCF727FA2DE0FCF724FA23460020B3
:1040800054F82C1F01E00968401CA142FBD1002814
:1040900014DDD3E90921D3F81CC00390CDF800C08A
:1040A000CDE9012108223946B7A002F04FFF204692
:1040B00000F0E0F884A002F049FF0BE0D3E90942E8
:1040C000D969CDE90220CDE9001408223946B5A00E
:1040D00002F03CFF6D1C0C98A842BDDC002EB4D150
:1040E00017B00020F0BDF0B593B00026B4A40823AB
:1040F0000BAA0A2104A800F0ABF80827224639468B
:10410000B1A002F023FF384600F099F8BBA002F0FE
:104110001DFF04A93046FFF7EAFB064600252CE008
:104120000BA850F825400C3CFCF7C8F9217A9DF803
:10413000182021F08001914202D0FCF7C3F91BE066
:10414000FCF7C0F9D4E90901CDE9000123460822B2
:104150003946B6A002F0FAFE607AC00701D0B9A0D5
:1041600000E0BCA002F0F2FE607A800701D5BDA09D
:1041700000E0BFA002F0EAFE6D1C0898A842CFDC68
:10418000002EC6D100F0CBF90146BCA002F0DEFE45
:1041900013B00020F0BD2DE9F04194B00026BDA47D
:1041A00008230BAA092104A800F052F80820804631
:1041B00001462246B9A002F0C9FE404600F03FF891
:1041C000C0A002F0C3FEC84F04A93046FFF78FFB22
:1041D0000646002523E00BA850F825400C3CFCF7D0
:1041E0006DF9217A9DF8182021F08001914202D0CA
:1041F000FCF768F912E0FCF765F9217D2346BBA0C6
:104200001E2903D257F8211001B10846997E0822D1
:10421000CDE900014146B7A002F098FE6D1C089858
:10422000A842D8DC002ECFD100206AE4024600214B
:1042300000E0491C00689042FBD10846704710B569
:10424000044602E0B0A002F081FE641EFAD210BD66
:104250002DE9F04104461E4617460D46084603F078
:1042600068FD001D2060257200206760C4E90360BE
:10427000BDE8F08170B5054604680CE0A4F11402B5
:104280000821A2A002F062FE2068A84202D0A1A0EC
:1042900002F05CFE2468AC42F0D170BD252D2A2EC0
:1042A0002A7320253034642020253034642025648E
:1042B0003A000000252D2A2E2A7320253034642050
:1042C00020253034642025640A0000006D73677176
:1042D0007565756500000000252D2A2E7320656E1A
:1042E0007472792073757370656E6420746872657A
:1042F00061640A00202D2D2D2D20202D2D2D2D2DFA
:104300002D2D2D2D2D2D2D2D2D0A0000252D2A2E64
:104310002A732025303464202025643A00000000F0
:10432000252D2A2E2A732025303464202025640A66
:10433000000000006D656D706F6F6C00252D2A2EDA
:104340007320626C6F636B20746F74616C20667293
:1043500065652073757370656E642074687265613D
:10436000640A0000202D2D2D2D20202D2D2D2D20F7
:10437000202D2D2D2D202D2D2D2D2D2D2D2D2D2D87
:104380002D2D2D2D0A000000252D2A2E2A732025E3
:1043900030346420202530346420202530346420DB
:1043A00025643A00252D2A2E2A73202530346420D6
:1043B00020253034642020253034642025640A0010
:1043C00074696D6572000000252D2A2E73202070FF
:1043D0006572696F64696320202074696D656F750B
:1043E00074202020206163746976617465642020E4
:1043F0002020206D6F64650A00000000202D2D2D07
:104400002D2D2D2D2D2D2D202D2D2D2D2D2D2D2DE9
:104410002D2D202D2D2D2D2D2D2D2D2D2D2D202DE6
:104420002D2D2D2D2D2D2D2D0A000000252D2A2E70
:104430002A73203078253038782030782530387845
:104440002000000061637469766174656420202037
:1044500000000000646561637469766174656420BE
:1044600000000000706572696F6469630A000000F3
:104470006F6E652073686F740A0000006375727256
:10448000656E74207469636B3A3078253038780A29
:10449000000000006465766963650000252D2A2E02
:1044A0007320202020202020202074797065202077
:1044B0002020202020202072656620636F756E7496
:1044C0000A000000202D2D2D2D2D2D2D2D2D2D2DD3
:1044D0002D2D2D2D2D2D2D2D2D202D2D2D2D2D2D19
:1044E0002D2D2D2D0A000000C8AF0008556E6B6EF3
:1044F0006F776E00252D2A2E2A7320252D323073DA
:1045000020252D38640A00002D000000252E2A7376
:10451000000000002F0000002A4948607047294829
:104520000068704710B50446FBF7C8FF25490C60CA
:10453000BDE81040FBF7C6BF70B5224D686800B1FA
:104540008047FBF7BBFF04462868401C286003F047
:1045500058FF816C491E816406D02046FBF7B2FFEC
:10456000BDE8704004F0B7BC416C816410F8341FA2
:1045700041F0080101702046FBF7A4FF03F02BFE79
:10458000EEE7002802DA4FF0FF3070474FF47A71FF
:1045900090FBF1F264235A4390FBF1F301FB13000B
:1045A00000EBC00303EB00104B1E03EB800090FBFD
:1045B000F1F0104470470348006800EB80004000B1
:1045C00070470000E800002000207047002070477E
:1045D000002070470020704770B5264C264D02E041
:1045E00020688047241DAC42FAD370BD70B5224CC0
:1045F000224D02E020688047241DAC42FAD370BDF2
:1046000010B5FFF7F3FFBDE81040FBF701BE1CB586
:1046100014210A204FF400630022CDE90001AFF21B
:104620001F0117A004F054F8040004D1D522164944
:1046300016A002F0BFFD2046BDE81C4003F0D7BF26
:1046400010B5FBF73BFFFEF7ECF802F01BFE04F0A1
:104650002BFD03F043FDFFF7DAFF04F029FD00F026
:10466000DEFA03F071FD002010BD10B5FFF7E8FF82
:10467000002010BD98BE0008A4BE0008B0BE00080F
:104680006D61696E0000000040B00008746964202C
:10469000213D2052545F4E554C4C0000092103F03F
:1046A00082BC2DE9F041154604000F464FF0FF365D
:1046B00003D00846FFF7F2FF10B13046BDE8F081A5
:1046C0003A460921204603F07EFBE5820020A076D1
:1046D0002083F3E710B5040004D15622D749D8A0AF
:1046E00002F068FD204603F050FC092804D0572250
:1046F000D249D7A002F05EFD204603F035FC20B978
:104700005822CE49E1A002F055FD204603F09BFB64
:10471000002010BD70B50546C91C21F003004030D3
:1047200002F05FFD040004D04022002102F054FC9E
:104730002575204670BD10B5040005D1BF499422EF
:104740001531BFA002F036FD204603F01EFC0928FB
:1047500005D0BA4995221531BDA002F02BFD2046A7
:1047600003F002FC28B1B54996221531D1A002F020
:1047700021FD204603F067FB2046BDE8104002F013
:104780001CBE70B504004FF0000505D1AB49AB224B
:104790002731ABA002F00EFD616A81B1A07DC00699
:1047A0000DD420468847050005D002462146CEA0FC
:1047B00002F0CCFB03E0E08A40F01000E0822846E3
:1047C00070BD70B50E4604004FF0000505D19B4941
:1047D000D02236319AA002F0EDFC204603F0D5FB42
:1047E000092805D09549D122363199A002F0E2FC82
:1047F000A07DC0060FD4616A49B1204688470500F4
:1048000005D002462146B8A002F0A0FB2AE0E08ACB
:1048100040F01000E082A07D000705D5207E000753
:1048200002D56FF0060070BDA26A3AB1314620464B
:104830009047050006D0A81D04D013E040F60F7085
:1048400006402683208B40F008002083A07E401C79
:1048500010F0FF00A07605D17849FF223631B0A0D4
:1048600002F0A8FC284670BD70B504004FF00005AA
:1048700006D172494FF48972453171A002F09AFC59
:10488000204603F082FB092806D06C4940F213123F
:1048900045316FA002F08EFCA07E30B1401E10F0BA
:1048A000FF00A07604D0002070BD4FF0FF3070BD37
:1048B000E16A29B120468847050001D0A81D01D131
:1048C00000202083284670BD2DE9F0411D46164684
:1048D0000F46040006D159494FF4A072553158A033
:1048E00002F068FC204603F050FB092806D053492B
:1048F00040F24112553156A002F05CFCA07E58B146
:10490000D4F830C0BCF1000F09D02B4632463946EE
:104910002046BDE8F04160474FF0FF3001E06FF006
:10492000050002F040FB0020C8E62DE9F0411D46DD
:1049300016460F46040006D1404940F26B1264311E
:104940003FA002F037FC204603F01FFB092806D0E9
:104950003A494FF4B67264313DA002F02BFCA07EC0
:1049600058B1D4F834C0BCF1000F09D02B46324600
:1049700039462046BDE8F04160474FF0FF3001E086
:104980006FF0050002F00FFB002097E670B51546AA
:104990000E46040006D1294940F28F12743128A036
:1049A00002F008FC204603F0F0FA092806D023495B
:1049B0004FF4C872743126A002F0FCFBA36B2BB13C
:1049C0002A4631462046BDE8704018476FF0050082
:1049D00070BD70B50D46040006D1184940F2AB1207
:1049E000863117A002F0E6FB204603F0CEFA092834
:1049F00006D012494FF4D672863115A002F0DAFBC8
:104A00000020E56170BD70B50D46040006D10B496C
:104A100040F2C312A0310AA002F0CCFB204603F002
:104A2000B4FA092806D005494FF4E272A03108A073
:104A300002F0C0FB0020256270BD000054B00008E9
:104A400064657620213D2052545F4E554C4C000049
:104A500072745F6F626A6563745F6765745F7479AF
:104A6000706528266465762D3E706172656E7429C6
:104A7000203D3D2052545F4F626A6563745F436C12
:104A80006173735F446576696365000072745F6F7C
:104A9000626A6563745F69735F73797374656D6F60
:104AA000626A65637428266465762D3E706172655E
:104AB0006E74290072745F6F626A6563745F6973F4
:104AC0005F73797374656D6F626A656374282664B9
:104AD00065762D3E706172656E7429203D3D2052D1
:104AE000545F46414C534500546F20696E697469A8
:104AF000616C697A65206465766963653A2573201F
:104B00006661696C65642E20546865206572726FF9
:104B10007220636F64652069732025640A000000B9
:104B20006465762D3E7265665F636F756E742021D5
:104B30003D20300070B505466FF00204FBF7BEFC67
:104B400002464548002100BF50F821303BB1491CC6
:104B50000429F9D31046FBF7B5FC204670BD40F898
:104B600021500024F6E770B505466FF00504FBF709
:104B7000A5FC02463848002150F82130AB4204D150
:104B8000002340F821301C4602E0491C0429F3D3DD
:104B90001046FBF797FC204670BD304914300A6878
:104BA00050600A68026008604160704770B52B4829
:104BB0000025046884420DD0A4F11405FBF77EFCA7
:104BC000D4E900124A60D4E90012116064602460E4
:104BD000FBF778FC284670BD1F4E002456F82400D1
:104BE00000B18047641C042CF8D300BFFFF7DEFF40
:104BF0000400F2D0A76F03F0B7F90546012802D1EF
:104C0000204603F020F90FB12046B847002DEDD122
:104C1000A06A02F0D2FB204603F07CF9E6E710B56B
:104C200086B000220EA104A802F050FB0E482023FB
:104C30001F22D9008DE80F00A0F180042046002338
:104C40000A4A04A903F070FC204603F0D0FC06B029
:104C500010BD054880387047A4040020F0000020F3
:104C60007469646C65256400A4030020D94B0008B6
:104C70002DE9F041064614460D46084603F09EFD18
:104C800005F11407F4B1012C07D0A422FA49FBA0C6
:104C900002F090FA0020BDE8F08134680EE000BF19
:104CA00095F8351094F82120A4F11400914204D213
:104CB0003946143001F016FF02E02468B442EFD107
:104CC000B442E7D13946304601F00CFFE2E72DE966
:104CD000F0411D4616460F46040006D1E64940F253
:104CE0002D121231E6A002F065FAB6F5803F06D328
:104CF000E1494FF497721231E5A002F05BFA45B139
:104D0000012D06D0DC4940F22F121231E5A002F04D
:104D100051FA3A460221204603F055F804F11400F6
:104D2000A0616061A68365720020B4E710B504003D
:104D300006D1D14940F257121E31D1A002F03AFA01
:104D4000204603F022F9022806D0CB494FF4AC727A
:104D50001E31E34802F02EFA204603F005F930B97F
:104D6000C54940F259121E31DEA002F023FA04F1C7
:104D7000140001F0C5FE204603F065F8002010BDC8
:104D80002DE9F04114460D460646B1F5803F06D3A5
:104D9000B9494FF4C5722C31BDA002F00BFA44B1F1
:104DA000012C06D0B44940F28B122C31BDA002F088
:104DB00001FAFBF783FB074601F0E8FE58B1AE4964
:104DC000D4A02C3102F0C2F8AB4940F28D122C3144
:104DD000AAA002F0EFF93846FBF774FB3146022037
:104DE00003F04EF8002805D000F114018161416103
:104DF000858344724FE770B5040006D19E4940F2A6
:104E0000B7123A319EA002F0D5F9204603F0BDF862
:104E1000022806D098494FF4DC723A31B04802F0CB
:104E2000C9F9204603F0A0F830B1934940F2B91215
:104E30003A31C2A002F0BEF9FBF740FB054601F093
:104E4000A5FE58B18C49B3A03A3102F07FF88A49E7
:104E500040F2BB123A3189A002F0ACF92846FBF7C8
:104E600031FB04F1140001F04BFE204603F052F830
:104E7000002070BD2DE9F347040006D17E494FF4B0
:104E8000F57248317EA002F095F9204603F07DF8D6
:104E9000022806D0784940F2EB124831904802F0DF
:104EA00089F9B548016809B120468847FBF706FB38
:104EB0000646A08B28B1401EA0833046FBF702FBBC
:104EC00067E00198C8B1FBF7F9FA814603F011FADF
:104ED00040F20B2550B16849A8A0483102F036F8DD
:104EE00065492A46483165A002F064F9FBF7E6FA05
:104EF000804603F086FA38B111E03046FBF7E2FA5B
:104F00006FF00100BDE8FC875B49A7A0483102F0C3
:104F10001DF859492A46483158A002F04BF9FBF7D1
:104F2000CDFA074601F032FE50B1534979A048311D
:104F300002F00CF850492A46483150A002F03AF9E4
:104F40003846FBF7BFFA4046FBF7BCFA4846FBF78A
:104F5000B9FA03F056FA054600202863627A29461A
:104F600004F11400FFF784FE0198002809DD05F123
:104F70004C0001AA0021074603F063FF384603F006
:104F8000D9FE3046FBF79EFA03F025F9286B00287E
:104F9000B8D19348016809B1204688470020B1E79D
:104FA000002167E770B5040006D133494FF4197248
:104FB000543133A002F0FEF8204602F0E6FF02284A
:104FC00006D02D4940F265225431454802F0F2F8EE
:104FD0008448016809B120468847FBF76FFA054607
:104FE000616904F11400814207D001F082FD284676
:104FF000FBF768FA03F0EFF809E0A08B4FF6FF71BA
:10500000884206D2401CA0832846FBF75BFA0020AA
:1050100070BD2846FBF756FA6FF0020070BD70B500
:1050200014460E46050006D1134940F2A52263310D
:1050300013A002F0BFF8284602F0A7FF022806D00E
:105040000D4940F2A6226331254802F0B3F8012E43
:1050500002D04FF0FF3070BDFBF730FA064605F185
:10506000140001F04DFDAC833046FBF72BFA03F042
:10507000B2F8002070BD00000EB100083000000042
:1050800073656D20213D2052545F4E554C4C0000FD
:1050900076616C7565203C20307831303030305589
:1050A0000000000028666C6167203D3D2052545F7F
:1050B0004950435F464C41475F4649464F29207C53
:1050C0007C2028666C6167203D3D2052545F49502A
:1050D000435F464C41475F5052494F290000000052
:1050E000F8B8000872745F6F626A6563745F697311
:1050F0005F73797374656D6F626A65637428267374
:10510000656D2D3E706172656E742E706172656E94
:105110007429000046756E6374696F6E5B25735D5C
:10512000207368616C6C206E6F74206265207573EB
:10513000656420696E204953520A000072745F6FE3
:10514000626A6563745F69735F73797374656D6FA9
:10515000626A656374282673656D2D3E70617265A1
:105160006E742E706172656E7429203D3D2052541C
:105170005F46414C534500002401002046756E6394
:1051800074696F6E5B25735D3A207363686564753F
:105190006C6572206973206E6F7420617661696C32
:1051A00061626C650A00000046756E6374696F6E1B
:1051B0005B25735D207368616C6C206E6F74206278
:1051C000652075736564206265666F726520736320
:1051D000686564756C65722073746172740A00008E
:1051E000280100202C01002070B50D46040005D1D7
:1051F00040F2EB22FA49FBA001F0DCFF2A46032132
:10520000204602F0E0FD04F11400A061606101207D
:105210000021A083FF222162A277E1776072084615
:1052200070BD10B5040006D1ED4940F215320E31C3
:10523000ECA001F0BFFF204602F0A7FE032806D035
:10524000E74940F216320E31EB4801F0B3FF204639
:1052500002F08AFE30B9E24940F217320E31E7A07F
:1052600001F0A8FF04F1140001F04AFC204602F00E
:10527000EAFD002010BD70B50446FBF71FF9054696
:1052800001F084FC68B1D6491E31AFF2781001F00C
:105290005DFED34940F23D321E31AFF2202001F0D5
:1052A00089FF2846FBF70EF92146032002F0E8FDAE
:1052B00000280BD000F1140181614161012100221D
:1052C0008183FF2302628377C277417270BD70B51C
:1052D000040006D1C24940F269322E31C1A001F06A
:1052E00069FF204602F051FE032806D0BC4940F277
:1052F0006A322E31C04801F05DFF204602F034FED4
:1053000030B1B74940F26B322E31C9A001F052FFE3
:10531000FBF7D4F8054601F039FC68B1B0492E31ED
:10532000AFF2102001F012FEAD4940F26D322E3185
:10533000AFF2B82001F03EFF2846FBF7C3F804F1B6
:10534000140001F0DDFB204602F0E4FD002070BDFA
:105350002DE9F3410446FBF7B1F8804602F0C9FF9E
:1053600040F2993560B19E493E31AFF2F01001F044
:10537000EDFD9B492A463E31AFF2003001F01AFFA5
:10538000FBF79CF8064603F03CF860B994493E31BF
:10539000AFF2EC1001F0DAFD91492A463E31AFF24E
:1053A000243001F007FFFBF789F8074601F0EEFB18
:1053B00060B18B493E31AFF2A42001F0C7FD8849AE
:1053C0002A463E31AFF24C3001F0F4FE3846FBF78E
:1053D00079F83046FBF776F84046FBF773F834B9B6
:1053E0007F494FF467723E317EA001F0E3FE204614
:1053F00002F0CBFD032806D0794940F29D323E31C0
:105400007D4801F0D7FE02F0FCFF0546FBF756F899
:1054100006469748016809B120468847002028635E
:10542000236AC71EAB4205D1E07FFF280BD2401C88
:10543000E0773AE0A08B60B1401EA083256295F82A
:105440003500A077F0E73046FBF73CF83846BDE87A
:10545000FC81019898B395F8350093F8351088428F
:1054600005D205F135020221184603F020FB627ACD
:10547000294604F11400FFF7FBFB0198002809DD21
:1054800005F14C0001AA0021074603F0DAFC38467A
:1054900003F050FC3046FBF715F802F09CFE286B39
:1054A0000028D4D1FBF70AF806463046FBF70AF885
:1054B0007048016809B1204688470020C7E7FFE728
:1054C0006FF0010430462C63FAF7FCFF2046BEE77C
:1054D00000213DE72DE9F041040006D1404940F2AA
:1054E00049424C313FA001F065FE204602F04DFDDF
:1054F000032806D03A4940F24A424C313E4801F076
:1055000059FEFAF7DBFF064602F07BFF40F24F45FB
:1055100060B933494C31AFF2703001F017FD3049BA
:105520002A464C31AFF2AC4001F044FEFAF7C6FF18
:10553000074601F02BFB60B129494C31AFF22C40FA
:1055400001F004FD26492A464C31AFF2D04001F06B
:1055500031FE3846FAF7B6FF3046FAF7B3FF02F0ED
:1055600050FF0546FAF7AAFF06464348016809B10D
:1055700020468847236AAB4207D04FF0FF343046BD
:105580002C63FAF79FFF204634E4E07F401E10F0C2
:10559000FF00E0777ED1A07F93F83510884205D0D8
:1055A00004F11E020221184603F081FA606904F139
:1055B00014016FF00205884261D01438206290F81F
:1055C0003500A077E07FFF2869D2401CE0770846CD
:1055D00001F08FFA3046FAF775FF02F0FCFD5CE04F
:1055E00080B100086D7574657820213D2052545FAC
:1055F0004E554C4C00000000CCB9000872745F6F2F
:10560000626A6563745F69735F73797374656D6FE4
:10561000626A65637428266D757465782D3E7061C5
:1056200072656E742E706172656E742900000000E0
:1056300072745F6F626A6563745F69735F737973B5
:1056400074656D6F626A65637428266D757465781C
:105650002D3E706172656E742E706172656E742974
:10566000203D3D2052545F46414C53450000000010
:1056700024010020280100202C0100200AE0A08B3A
:105680004FF6FF7188420AD2401CA083002020629E
:10569000FF20A0773046FAF715FF002074E7304668
:1056A000FAF710FF28466FE710B5040006D1FF494E
:1056B00040F2C342AFF2D40001F07CFD204602F07C
:1056C00064FC032805D040F2C442F849F84801F0D0
:1056D00071FD4FF0FF3010BD70B515460E46040049
:1056E00006D1F24940F2F9421131F2A001F062FD17
:1056F0004DB1012D07D0ED4940F2FA421131AFF220
:105700005C6001F057FD32460421204602F05BFB4D
:10571000657204F11400A06160610020E06170BD59
:1057200010B5040006D1E14940F222521F31E1A038
:1057300001F040FD204602F028FC042806D0DB4999
:1057400040F223521F31E04801F034FD204602F0C0
:105750000BFC30B9D54940F224521F31DBA001F0D7
:1057600029FD04F1140001F0CBF9204602F06BFB97
:10577000002010BD70B50C00054609D0012C07D0E3
:10578000CA4940F251522F31AFF2E86001F012FDE8
:10579000FAF794FE064601F0F9F968B1C3492F31D2
:1057A000AFF2906001F0D2FBC04940F253522F316A
:1057B000AFF2387001F0FEFC3046FAF783FE29465E
:1057C000042002F05DFB002806D0447200F11401B1
:1057D000816141610021C16170BD70B5040006D1D5
:1057E000B24940F27D523F31B2A001F0E3FC2046C5
:1057F00002F0CBFB042806D0AC4940F27E523F3188
:10580000B14801F0D7FC204602F0AEFB30B1A74909
:1058100040F27F523F31BAA001F0CCFCFAF74EFEC5
:10582000054601F0B3F968B1A0493F31AFF21C70F1
:1058300001F08CFB9D4940F281523F31AFF2C470C0
:1058400001F0B8FC2846FAF73DFE04F1140001F01F
:1058500057F9204602F05EFB002070BD2DE9F041B3
:105860000C46050006D1914940F2A9524F3191A052
:1058700001F0A0FC284602F088FB042806D08B49E2
:1058800040F2AA524F31904801F094FC4FF0FF30A3
:10589000002C30D00027FAF711FE8046E86920433B
:1058A000E861A748016809B1284688476C6905F195
:1058B0001406B44216D12FE094F82C10A4F1140071
:1058C000CA0719D0C16BEA69914323D190F84010FF
:1058D0002468490703D5E969C26B9143E96102F085
:1058E0004FFE0127B442E7D14046FAF7EBFD0FB176
:1058F00002F071FC002047E6890705D5C16BEA6913
:10590000114007D0C163E1E74046FAF7DBFD6FF0D5
:10591000090039E62468E5E74046FAF7D3FDE9E7F0
:105920002DE9FF5F1746DDF838800E46050006D1E9
:105930005E494FF4C5625D315EA001F03BFC284634
:1059400002F023FB042806D0584940F229625D3159
:105950005D4801F02FFCFAF7B1FD834602F0C9FC67
:1059600040F22C6460B151495D31AFF2F07001F04A
:10597000EDFA4E4922465D31AFF6001001F01AFCF7
:10598000FAF79CFD824602F03CFD60B947495D3163
:10599000AFF2EC7001F0DAFA444922465D31AFF61D
:1059A000241001F007FCFAF789FD814601F0EEF8BA
:1059B00060B13E495D31AFF6A40001F0C7FA3B4942
:1059C00022465D31AFF64C1001F0F4FB4846FAF781
:1059D00079FD5046FAF776FD5846FAF773FD4FF019
:1059E000FF30002E61D002F00CFD04460020206341
:1059F0005448016809B128468847FAF75FFD814697
:105A0000F80704D0E86936EA000005D01EE0B807C0
:105A100014D5E869304219D0B8F1000F03D0E86915
:105A20003040C8F80000E8693040E06384F8407016
:105A3000780734D5E869B043E86130E01B4940F2AB
:105A40004B625D31AFF6CC1001F0B4FB039858B354
:105A5000E66384F840706A7A214605F11400FFF786
:105A600007F90398002809DD04F14C0003AA00217E
:105A7000064603F0E6F9304603F05CF94846FAF7CB
:105A800021FD02F0A8FB206B002864D1FAF716FD77
:105A90008146B8F1000F02D0E16BC8F8001048460B
:105AA000FAF710FD284851E058E054E0DDB1000855
:105AB000CCB900086576656E7420213D2052545F94
:105AC0004E554C4C0000000088B9000872745F6F9E
:105AD000626A6563745F69735F73797374656D6F10
